{
  "address": "0x9Bd3abc67fB898cb7448fBC4Dc37FDE23A8aCc1A",
  "abi": [
    {
      "inputs": [
        {
          "internalType": "address",
          "name": "priceFeedAddress",
          "type": "address"
        }
      ],
      "stateMutability": "nonpayable",
      "type": "constructor"
    },
    {
      "inputs": [],
      "name": "FundMe__CallFailed",
      "type": "error"
    },
    {
      "inputs": [],
      "name": "FundMe__NotEnoughETH",
      "type": "error"
    },
    {
      "inputs": [],
      "name": "FundMe__NotOwner",
      "type": "error"
    },
    {
      "stateMutability": "payable",
      "type": "fallback"
    },
    {
      "inputs": [],
      "name": "MINIMUM_USD",
      "outputs": [
        {
          "internalType": "uint256",
          "name": "",
          "type": "uint256"
        }
      ],
      "stateMutability": "view",
      "type": "function"
    },
    {
      "inputs": [],
      "name": "fund",
      "outputs": [],
      "stateMutability": "payable",
      "type": "function"
    },
    {
      "inputs": [
        {
          "internalType": "address",
          "name": "funderAddress",
          "type": "address"
        }
      ],
      "name": "getAddressToAmountFunded",
      "outputs": [
        {
          "internalType": "uint256",
          "name": "",
          "type": "uint256"
        }
      ],
      "stateMutability": "view",
      "type": "function"
    },
    {
      "inputs": [
        {
          "internalType": "uint256",
          "name": "index",
          "type": "uint256"
        }
      ],
      "name": "getFunder",
      "outputs": [
        {
          "internalType": "address",
          "name": "",
          "type": "address"
        }
      ],
      "stateMutability": "view",
      "type": "function"
    },
    {
      "inputs": [],
      "name": "getOwner",
      "outputs": [
        {
          "internalType": "address",
          "name": "",
          "type": "address"
        }
      ],
      "stateMutability": "view",
      "type": "function"
    },
    {
      "inputs": [],
      "name": "getPriceFeed",
      "outputs": [
        {
          "internalType": "contract AggregatorV3Interface",
          "name": "",
          "type": "address"
        }
      ],
      "stateMutability": "view",
      "type": "function"
    },
    {
      "inputs": [],
      "name": "getVersion",
      "outputs": [
        {
          "internalType": "uint256",
          "name": "",
          "type": "uint256"
        }
      ],
      "stateMutability": "view",
      "type": "function"
    },
    {
      "inputs": [],
      "name": "withdraw",
      "outputs": [],
      "stateMutability": "nonpayable",
      "type": "function"
    },
    {
      "stateMutability": "payable",
      "type": "receive"
    }
  ],
  "transactionHash": "0xcdd9b5d4f40f22ee6816a528748fc16abdbfc6168351200247b0d830dc81fda7",
  "args": [
    "0x694AA1769357215DE4FAC081bf1f309aDC325306"
  ],
  "numDeployments": 2,
  "solcInputHash": "ef2f5f5837cb3ff2f5822b5500424651",
  "bytecode": "0x608060405234801561001057600080fd5b50604051610f98380380610f988339818101604052810190610032919061011d565b33600360006101000a81548173ffffffffffffffffffffffffffffffffffffffff021916908373ffffffffffffffffffffffffffffffffffffffff16021790555080600260006101000a81548173ffffffffffffffffffffffffffffffffffffffff021916908373ffffffffffffffffffffffffffffffffffffffff1602179055505061014a565b600080fd5b600073ffffffffffffffffffffffffffffffffffffffff82169050919050565b60006100ea826100bf565b9050919050565b6100fa816100df565b811461010557600080fd5b50565b600081519050610117816100f1565b92915050565b600060208284031215610133576101326100ba565b5b600061014184828501610108565b91505092915050565b610e3f806101596000396000f3fe60806040526004361061007f5760003560e01c8063893d20e81161004e578063893d20e8146101425780639e87a5cd1461016d578063b60d428814610198578063d7b4750c146101a25761008e565b80630343fb25146100985780630d8e6e2c146100d55780633ccfd60b146101005780636b69a592146101175761008e565b3661008e5761008c6101df565b005b6100966101df565b005b3480156100a457600080fd5b506100bf60048036038101906100ba919061090d565b610310565b6040516100cc9190610953565b60405180910390f35b3480156100e157600080fd5b506100ea610358565b6040516100f79190610953565b60405180910390f35b34801561010c57600080fd5b506101156103f0565b005b34801561012357600080fd5b5061012c61068d565b6040516101399190610953565b60405180910390f35b34801561014e57600080fd5b5061015761069a565b604051610164919061097d565b60405180910390f35b34801561017957600080fd5b506101826106c4565b60405161018f91906109f7565b60405180910390f35b6101a06101df565b005b3480156101ae57600080fd5b506101c960048036038101906101c49190610a3e565b6106ee565b6040516101d6919061097d565b60405180910390f35b6802b5e3af16b188000061021e600260009054906101000a900473ffffffffffffffffffffffffffffffffffffffff163461073690919063ffffffff16565b1015610256576040517fb514e4ed00000000000000000000000000000000000000000000000000000000815260040160405180910390fd5b346000803373ffffffffffffffffffffffffffffffffffffffff1673ffffffffffffffffffffffffffffffffffffffff16815260200190815260200160002060008282546102a49190610a9a565b925050819055506001339080600181540180825580915050600190039060005260206000200160009091909190916101000a81548173ffffffffffffffffffffffffffffffffffffffff021916908373ffffffffffffffffffffffffffffffffffffffff160217905550565b60008060008373ffffffffffffffffffffffffffffffffffffffff1673ffffffffffffffffffffffffffffffffffffffff168152602001908152602001600020549050919050565b6000600260009054906101000a900473ffffffffffffffffffffffffffffffffffffffff1673ffffffffffffffffffffffffffffffffffffffff166354fd4d506040518163ffffffff1660e01b8152600401602060405180830381865afa1580156103c7573d6000803e3d6000fd5b505050506040513d601f19601f820116820180604052508101906103eb9190610ae3565b905090565b600360009054906101000a900473ffffffffffffffffffffffffffffffffffffffff1673ffffffffffffffffffffffffffffffffffffffff163373ffffffffffffffffffffffffffffffffffffffff1614610477576040517f579610db00000000000000000000000000000000000000000000000000000000815260040160405180910390fd5b600060018054806020026020016040519081016040528092919081815260200182805480156104fb57602002820191906000526020600020905b8160009054906101000a900473ffffffffffffffffffffffffffffffffffffffff1673ffffffffffffffffffffffffffffffffffffffff16815260200190600101908083116104b1575b5050505050905060005b815181101561058557600082828151811061052357610522610b10565b5b6020026020010151905060008060008373ffffffffffffffffffffffffffffffffffffffff1673ffffffffffffffffffffffffffffffffffffffff1681526020019081526020016000208190555050808061057d90610b3f565b915050610505565b50600067ffffffffffffffff8111156105a1576105a0610b87565b5b6040519080825280602002602001820160405280156105cf5781602001602082028036833780820191505090505b50600190805190602001906105e5929190610803565b5060003373ffffffffffffffffffffffffffffffffffffffff164760405161060c90610be7565b60006040518083038185875af1925050503d8060008114610649576040519150601f19603f3d011682016040523d82523d6000602084013e61064e565b606091505b5050905080610689576040517fa6139a6400000000000000000000000000000000000000000000000000000000815260040160405180910390fd5b5050565b6802b5e3af16b188000081565b6000600360009054906101000a900473ffffffffffffffffffffffffffffffffffffffff16905090565b6000600260009054906101000a900473ffffffffffffffffffffffffffffffffffffffff16905090565b60006001828154811061070457610703610b10565b5b9060005260206000200160009054906101000a900473ffffffffffffffffffffffffffffffffffffffff169050919050565b60008061074283610772565b90506000670de0b6b3a7640000858361075b9190610bfc565b6107659190610c6d565b9050809250505092915050565b6000808273ffffffffffffffffffffffffffffffffffffffff1663feaf968c6040518163ffffffff1660e01b815260040160a060405180830381865afa1580156107c0573d6000803e3d6000fd5b505050506040513d601f19601f820116820180604052508101906107e49190610d16565b5050509150506402540be400816107fb9190610d91565b915050919050565b82805482825590600052602060002090810192821561087c579160200282015b8281111561087b5782518260006101000a81548173ffffffffffffffffffffffffffffffffffffffff021916908373ffffffffffffffffffffffffffffffffffffffff16021790555091602001919060010190610823565b5b509050610889919061088d565b5090565b5b808211156108a657600081600090555060010161088e565b5090565b600080fd5b600073ffffffffffffffffffffffffffffffffffffffff82169050919050565b60006108da826108af565b9050919050565b6108ea816108cf565b81146108f557600080fd5b50565b600081359050610907816108e1565b92915050565b600060208284031215610923576109226108aa565b5b6000610931848285016108f8565b91505092915050565b6000819050919050565b61094d8161093a565b82525050565b60006020820190506109686000830184610944565b92915050565b610977816108cf565b82525050565b6000602082019050610992600083018461096e565b92915050565b6000819050919050565b60006109bd6109b86109b3846108af565b610998565b6108af565b9050919050565b60006109cf826109a2565b9050919050565b60006109e1826109c4565b9050919050565b6109f1816109d6565b82525050565b6000602082019050610a0c60008301846109e8565b92915050565b610a1b8161093a565b8114610a2657600080fd5b50565b600081359050610a3881610a12565b92915050565b600060208284031215610a5457610a536108aa565b5b6000610a6284828501610a29565b91505092915050565b7f4e487b7100000000000000000000000000000000000000000000000000000000600052601160045260246000fd5b6000610aa58261093a565b9150610ab08361093a565b9250828201905080821115610ac857610ac7610a6b565b5b92915050565b600081519050610add81610a12565b92915050565b600060208284031215610af957610af86108aa565b5b6000610b0784828501610ace565b91505092915050565b7f4e487b7100000000000000000000000000000000000000000000000000000000600052603260045260246000fd5b6000610b4a8261093a565b91507fffffffffffffffffffffffffffffffffffffffffffffffffffffffffffffffff8203610b7c57610b7b610a6b565b5b600182019050919050565b7f4e487b7100000000000000000000000000000000000000000000000000000000600052604160045260246000fd5b600081905092915050565b50565b6000610bd1600083610bb6565b9150610bdc82610bc1565b600082019050919050565b6000610bf282610bc4565b9150819050919050565b6000610c078261093a565b9150610c128361093a565b9250828202610c208161093a565b91508282048414831517610c3757610c36610a6b565b5b5092915050565b7f4e487b7100000000000000000000000000000000000000000000000000000000600052601260045260246000fd5b6000610c788261093a565b9150610c838361093a565b925082610c9357610c92610c3e565b5b828204905092915050565b600069ffffffffffffffffffff82169050919050565b610cbd81610c9e565b8114610cc857600080fd5b50565b600081519050610cda81610cb4565b92915050565b6000819050919050565b610cf381610ce0565b8114610cfe57600080fd5b50565b600081519050610d1081610cea565b92915050565b600080600080600060a08688031215610d3257610d316108aa565b5b6000610d4088828901610ccb565b9550506020610d5188828901610d01565b9450506040610d6288828901610ace565b9350506060610d7388828901610ace565b9250506080610d8488828901610ccb565b9150509295509295909350565b6000610d9c82610ce0565b9150610da783610ce0565b9250828202610db581610ce0565b91507f80000000000000000000000000000000000000000000000000000000000000008414600084121615610ded57610dec610a6b565b5b8282058414831517610e0257610e01610a6b565b5b509291505056fea2646970667358221220a47a2afcc3367dce28b8c165d559ce5658886a3714a01da47a508d332a0dda0964736f6c63430008120033",
  "devdoc": {
    "kind": "dev",
    "methods": {},
    "version": 1
  },
  "userdoc": {
    "kind": "user",
    "methods": {},
    "version": 1
  },
  "storageLayout": {
    "storage": [
      {
        "astId": 62,
        "contract": "contracts/Fundme.sol:FundMe",
        "label": "s_addressToAmountFunded",
        "offset": 0,
        "slot": "0",
        "type": "t_mapping(t_address,t_uint256)"
      },
      {
        "astId": 65,
        "contract": "contracts/Fundme.sol:FundMe",
        "label": "s_funders",
        "offset": 0,
        "slot": "1",
        "type": "t_array(t_address)dyn_storage"
      },
      {
        "astId": 68,
        "contract": "contracts/Fundme.sol:FundMe",
        "label": "s_priceFeed",
        "offset": 0,
        "slot": "2",
        "type": "t_contract(AggregatorV3Interface)45"
      },
      {
        "astId": 70,
        "contract": "contracts/Fundme.sol:FundMe",
        "label": "i_owner",
        "offset": 0,
        "slot": "3",
        "type": "t_address"
      }
    ],
    "types": {
      "t_address": {
        "encoding": "inplace",
        "label": "address",
        "numberOfBytes": "20"
      },
      "t_array(t_address)dyn_storage": {
        "base": "t_address",
        "encoding": "dynamic_array",
        "label": "address[]",
        "numberOfBytes": "32"
      },
      "t_contract(AggregatorV3Interface)45": {
        "encoding": "inplace",
        "label": "contract AggregatorV3Interface",
        "numberOfBytes": "20"
      },
      "t_mapping(t_address,t_uint256)": {
        "encoding": "mapping",
        "key": "t_address",
        "label": "mapping(address => uint256)",
        "numberOfBytes": "32",
        "value": "t_uint256"
      },
      "t_uint256": {
        "encoding": "inplace",
        "label": "uint256",
        "numberOfBytes": "32"
      }
    }
  }
}